{
  "contractName": "CrowdsaleGenerator",
  "abi": [
    {
      "constant": true,
      "inputs": [],
      "name": "tokensMintedForSale",
      "outputs": [
        {
          "name": "",
          "type": "uint256"
        }
      ],
      "payable": false,
      "stateMutability": "view",
      "type": "function"
    },
    {
      "constant": true,
      "inputs": [],
      "name": "rate",
      "outputs": [
        {
          "name": "",
          "type": "uint256"
        }
      ],
      "payable": false,
      "stateMutability": "view",
      "type": "function"
    },
    {
      "constant": true,
      "inputs": [],
      "name": "endTime",
      "outputs": [
        {
          "name": "",
          "type": "uint256"
        }
      ],
      "payable": false,
      "stateMutability": "view",
      "type": "function"
    },
    {
      "constant": false,
      "inputs": [],
      "name": "unpause",
      "outputs": [],
      "payable": false,
      "stateMutability": "nonpayable",
      "type": "function"
    },
    {
      "constant": true,
      "inputs": [],
      "name": "weiRaised",
      "outputs": [
        {
          "name": "",
          "type": "uint256"
        }
      ],
      "payable": false,
      "stateMutability": "view",
      "type": "function"
    },
    {
      "constant": true,
      "inputs": [
        {
          "name": "",
          "type": "address"
        }
      ],
      "name": "contributions",
      "outputs": [
        {
          "name": "",
          "type": "uint256"
        }
      ],
      "payable": false,
      "stateMutability": "view",
      "type": "function"
    },
    {
      "constant": true,
      "inputs": [],
      "name": "hasStarted",
      "outputs": [
        {
          "name": "",
          "type": "bool"
        }
      ],
      "payable": false,
      "stateMutability": "view",
      "type": "function"
    },
    {
      "constant": true,
      "inputs": [],
      "name": "wallet",
      "outputs": [
        {
          "name": "",
          "type": "address"
        }
      ],
      "payable": false,
      "stateMutability": "view",
      "type": "function"
    },
    {
      "constant": true,
      "inputs": [],
      "name": "paused",
      "outputs": [
        {
          "name": "",
          "type": "bool"
        }
      ],
      "payable": false,
      "stateMutability": "view",
      "type": "function"
    },
    {
      "constant": true,
      "inputs": [],
      "name": "calculateTierBonus",
      "outputs": [
        {
          "name": "",
          "type": "uint256"
        }
      ],
      "payable": false,
      "stateMutability": "view",
      "type": "function"
    },
    {
      "constant": true,
      "inputs": [],
      "name": "startTime",
      "outputs": [
        {
          "name": "",
          "type": "uint256"
        }
      ],
      "payable": false,
      "stateMutability": "view",
      "type": "function"
    },
    {
      "constant": true,
      "inputs": [],
      "name": "tellTime",
      "outputs": [
        {
          "name": "",
          "type": "uint256"
        }
      ],
      "payable": false,
      "stateMutability": "view",
      "type": "function"
    },
    {
      "constant": false,
      "inputs": [],
      "name": "pause",
      "outputs": [],
      "payable": false,
      "stateMutability": "nonpayable",
      "type": "function"
    },
    {
      "constant": true,
      "inputs": [],
      "name": "maxContribution",
      "outputs": [
        {
          "name": "",
          "type": "uint256"
        }
      ],
      "payable": false,
      "stateMutability": "view",
      "type": "function"
    },
    {
      "constant": true,
      "inputs": [],
      "name": "isFinalized",
      "outputs": [
        {
          "name": "",
          "type": "bool"
        }
      ],
      "payable": false,
      "stateMutability": "view",
      "type": "function"
    },
    {
      "constant": true,
      "inputs": [],
      "name": "owner",
      "outputs": [
        {
          "name": "",
          "type": "address"
        }
      ],
      "payable": false,
      "stateMutability": "view",
      "type": "function"
    },
    {
      "constant": true,
      "inputs": [],
      "name": "minContribution",
      "outputs": [
        {
          "name": "",
          "type": "uint256"
        }
      ],
      "payable": false,
      "stateMutability": "view",
      "type": "function"
    },
    {
      "constant": true,
      "inputs": [],
      "name": "tokenCap",
      "outputs": [
        {
          "name": "",
          "type": "uint256"
        }
      ],
      "payable": false,
      "stateMutability": "view",
      "type": "function"
    },
    {
      "constant": false,
      "inputs": [
        {
          "name": "beneficiary",
          "type": "address"
        }
      ],
      "name": "buyTokens",
      "outputs": [],
      "payable": true,
      "stateMutability": "payable",
      "type": "function"
    },
    {
      "constant": true,
      "inputs": [],
      "name": "hasEnded",
      "outputs": [
        {
          "name": "",
          "type": "bool"
        }
      ],
      "payable": false,
      "stateMutability": "view",
      "type": "function"
    },
    {
      "constant": false,
      "inputs": [
        {
          "name": "newOwner",
          "type": "address"
        }
      ],
      "name": "transferOwnership",
      "outputs": [],
      "payable": false,
      "stateMutability": "nonpayable",
      "type": "function"
    },
    {
      "constant": true,
      "inputs": [],
      "name": "token",
      "outputs": [
        {
          "name": "",
          "type": "address"
        }
      ],
      "payable": false,
      "stateMutability": "view",
      "type": "function"
    },
    {
      "inputs": [
        {
          "name": "_startTime",
          "type": "uint256"
        },
        {
          "name": "_endTime",
          "type": "uint256"
        },
        {
          "name": "_wallet",
          "type": "address"
        },
        {
          "name": "_rate",
          "type": "uint256"
        },
        {
          "name": "_tokenCap",
          "type": "uint256"
        },
        {
          "name": "_minContribution",
          "type": "uint256"
        },
        {
          "name": "_maxContribution",
          "type": "uint256"
        },
        {
          "name": "_tokenName",
          "type": "string"
        },
        {
          "name": "_tokenSymbol",
          "type": "string"
        },
        {
          "name": "_tokenDecimals",
          "type": "uint8"
        }
      ],
      "payable": false,
      "stateMutability": "nonpayable",
      "type": "constructor"
    },
    {
      "payable": true,
      "stateMutability": "payable",
      "type": "fallback"
    },
    {
      "anonymous": false,
      "inputs": [],
      "name": "Finalized",
      "type": "event"
    },
    {
      "anonymous": false,
      "inputs": [
        {
          "indexed": true,
          "name": "purchaser",
          "type": "address"
        },
        {
          "indexed": true,
          "name": "beneficiary",
          "type": "address"
        },
        {
          "indexed": false,
          "name": "value",
          "type": "uint256"
        },
        {
          "indexed": false,
          "name": "amount",
          "type": "uint256"
        }
      ],
      "name": "TokenPurchase",
      "type": "event"
    },
    {
      "anonymous": false,
      "inputs": [],
      "name": "Pause",
      "type": "event"
    },
    {
      "anonymous": false,
      "inputs": [],
      "name": "Unpause",
      "type": "event"
    },
    {
      "anonymous": false,
      "inputs": [
        {
          "indexed": true,
          "name": "previousOwner",
          "type": "address"
        },
        {
          "indexed": true,
          "name": "newOwner",
          "type": "address"
        }
      ],
      "name": "OwnershipTransferred",
      "type": "event"
    }
  ],
  "bytecode": "0x60606040526000805460a060020a60ff02191690556008805460ff19169055341561002957600080fd5b6040516200280038038062002800833981016040528080519190602001805191906020018051919060200180519190602001805191906020018051919060200180519190602001805182019190602001805182019190602001805160008054600160a060020a03191633600160a060020a0316179055915050428a10156100af57600080fd5b8989116100bb57600080fd5b600160a060020a03881615156100d057600080fd5b600085116100dd57600080fd5b848410156100ea57600080fd5b60028a9055600389905560048054600160a060020a031916600160a060020a038a1617905560078790556009869055600a859055600b84905561013b83838364010000000061016b810261097c1704565b60018054600160a060020a031916600160a060020a03929092169190911790555061028698505050505050505050565b6000838383610178610275565b60ff82166040820152606080825281906020820190820186818151815260200191508051906020019080838360005b838110156101bf5780820151838201526020016101a7565b50505050905090810190601f1680156101ec5780820380516001836020036101000a031916815260200191505b50838103825285818151815260200191508051906020019080838360005b8381101561022257808201518382015260200161020a565b50505050905090810190601f16801561024f5780820380516001836020036101000a031916815260200191505b5095505050505050604051809103906000f080151561026d57600080fd5b949350505050565b604051610d548062001aac83390190565b61181680620002966000396000f30060606040526004361061010e5763ffffffff60e060020a6000350416630fb4b07081146101545780632c4e722e146101795780633197cbb61461018c5780633f4ba83a1461019f5780634042b66f146101b257806342e94c90146101c557806344691f7e146101e4578063521eb2731461020b5780635c975abb1461023a5780636595c94e1461024d57806378e979251461026057806379a37bd0146102735780638456cb59146102865780638d3d6576146102995780638d4e4083146102ac5780638da5cb5b146102bf578063aaffadf3146102d2578063dd54291b146102e5578063ec8ac4d8146102f8578063ecb70fb71461030c578063f2fde38b1461031f578063fc0c546a1461033e575b60005460a060020a900460ff161561012557600080fd5b61012d610351565b801561013e575061013c61035b565b155b151561014957600080fd5b61015233610377565b005b341561015f57600080fd5b61016761062c565b60405190815260200160405180910390f35b341561018457600080fd5b610167610632565b341561019757600080fd5b610167610638565b34156101aa57600080fd5b61015261063e565b34156101bd57600080fd5b6101676106bd565b34156101d057600080fd5b610167600160a060020a03600435166106c3565b34156101ef57600080fd5b6101f7610351565b604051901515815260200160405180910390f35b341561021657600080fd5b61021e6106d5565b604051600160a060020a03909116815260200160405180910390f35b341561024557600080fd5b6101f76106e4565b341561025857600080fd5b6101676106f4565b341561026b57600080fd5b610167610736565b341561027e57600080fd5b61016761073c565b341561029157600080fd5b610152610740565b34156102a457600080fd5b6101676107c4565b34156102b757600080fd5b6101f76107ca565b34156102ca57600080fd5b61021e6107d3565b34156102dd57600080fd5b6101676107e2565b34156102f057600080fd5b6101676107e8565b610152600160a060020a0360043516610377565b341561031757600080fd5b6101f761035b565b341561032a57600080fd5b610152600160a060020a03600435166107ee565b341561034957600080fd5b61021e610889565b6002544210155b90565b60035460009042118080610371575060085460ff165b91505090565b600080548190819060a060020a900460ff161561039357600080fd5b61039b610351565b80156103ac57506103aa61035b565b155b15156103b757600080fd5b600160a060020a03841615156103cc57600080fd5b600a543410156103db57600080fd5b600b54600160a060020a0333166000908152600c6020526040902054610407903463ffffffff61089816565b111561041257600080fd5b34925061041d6106f4565b6001549092506104ac90600160a060020a031663313ce5676000604051602001526040518163ffffffff1660e060020a028152600401602060405180830381600087803b151561046c57600080fd5b6102c65a03f1151561047d57600080fd5b505050604051805160ff16601203600a0a90506104a0858563ffffffff6108b216565b9063ffffffff6108dd16565b90506009546104c68260065461089890919063ffffffff16565b11156104d157600080fd5b6005546104e4908463ffffffff61089816565b600555600160a060020a0333166000908152600c6020526040902054610510908463ffffffff61089816565b600160a060020a0333166000908152600c602052604090205560065461053c908263ffffffff61089816565b600655600154600160a060020a03166340c10f19858360006040516020015260405160e060020a63ffffffff8516028152600160a060020a0390921660048301526024820152604401602060405180830381600087803b151561059e57600080fd5b6102c65a03f115156105af57600080fd5b505050604051805190505083600160a060020a031633600160a060020a03167f623b3804fa71d67900d064613da8f94b9617215ee90799290593e1745087ad18858460405191825260208201526040908101905180910390a3600954600654141561061e5761061c6108f4565b505b610626610946565b50505050565b60065481565b60075481565b60035481565b60005433600160a060020a0390811691161461065957600080fd5b60005460a060020a900460ff16151561067157600080fd5b6000805474ff0000000000000000000000000000000000000000191690557f7805862f689e2f13df9f062ff482ad3ad112aca9e0847911ed832e158c525b3360405160405180910390a1565b60055481565b600c6020526000908152604090205481565b600454600160a060020a031681565b60005460a060020a900460ff1681565b6000600254421015801561070a57506003544211155b156107185750600754610358565b600254421080610729575060035442115b1561035857506000610358565b60025481565b4290565b60005433600160a060020a0390811691161461075b57600080fd5b60005460a060020a900460ff161561077257600080fd5b6000805474ff0000000000000000000000000000000000000000191660a060020a1790557f6985a02210a168e66602d3235cb6db0e70f92b3ba4d376a33c0f3d9434bff62560405160405180910390a1565b600b5481565b60085460ff1681565b600054600160a060020a031681565b600a5481565b60095481565b60005433600160a060020a0390811691161461080957600080fd5b600160a060020a038116151561081e57600080fd5b600054600160a060020a0380831691167f8be0079c531659141344cd1fd0a4f28419497f9722a3daafe3b4186f6b6457e060405160405180910390a36000805473ffffffffffffffffffffffffffffffffffffffff1916600160a060020a0392909216919091179055565b600154600160a060020a031681565b6000828201838110156108a757fe5b8091505b5092915050565b6000808315156108c557600091506108ab565b508282028284828115156108d557fe5b04146108a757fe5b60008082848115156108eb57fe5b04949350505050565b60085460009060ff161561090757600080fd5b6008805460ff191660011790557f6823b073d48d6e3a7d385eeb601452d680e74bb46afe3255a7d778f3a9b1768160405160405180910390a150600190565b600454600160a060020a03163480156108fc0290604051600060405180830381858888f19350505050151561097a57600080fd5b565b6000838383610989610a86565b60ff82166040820152606080825281906020820190820186818151815260200191508051906020019080838360005b838110156109d05780820151838201526020016109b8565b50505050905090810190601f1680156109fd5780820380516001836020036101000a031916815260200191505b50838103825285818151815260200191508051906020019080838360005b83811015610a33578082015183820152602001610a1b565b50505050905090810190601f168015610a605780820380516001836020036101000a031916815260200191505b5095505050505050604051809103906000f0801515610a7e57600080fd5b949350505050565b604051610d5480610a9783390190560060606040526003805460a060020a60ff0219169055341561001f57600080fd5b604051610d54380380610d548339810160405280805182019190602001805182019190602001805160038054600160a060020a03191633600160a060020a03161790559150600490508380516100799291602001906100aa565b50600582805161008d9291602001906100aa565b506006805460ff191660ff92909216919091179055506101459050565b828054600181600116156101000203166002900490600052602060002090601f016020900481019282601f106100eb57805160ff1916838001178555610118565b82800160010185558215610118579182015b828111156101185782518255916020019190600101906100fd565b50610124929150610128565b5090565b61014291905b80821115610124576000815560010161012e565b90565b610c00806101546000396000f3006060604052600436106100e55763ffffffff7c010000000000000000000000000000000000000000000000000000000060003504166305d2035b81146100ea57806306fdde0314610111578063095ea7b31461019b57806318160ddd146101bd57806323b872dd146101e2578063313ce5671461020a57806340c10f1914610233578063661884631461025557806370a08231146102775780637d64bcb4146102965780638da5cb5b146102a957806395d89b41146102d8578063a9059cbb146102eb578063d73dd6231461030d578063dd62ed3e1461032f578063f2fde38b14610354575b600080fd5b34156100f557600080fd5b6100fd610375565b604051901515815260200160405180910390f35b341561011c57600080fd5b610124610385565b60405160208082528190810183818151815260200191508051906020019080838360005b83811015610160578082015183820152602001610148565b50505050905090810190601f16801561018d5780820380516001836020036101000a031916815260200191505b509250505060405180910390f35b34156101a657600080fd5b6100fd600160a060020a0360043516602435610423565b34156101c857600080fd5b6101d061048f565b60405190815260200160405180910390f35b34156101ed57600080fd5b6100fd600160a060020a0360043581169060243516604435610495565b341561021557600080fd5b61021d610617565b60405160ff909116815260200160405180910390f35b341561023e57600080fd5b6100fd600160a060020a0360043516602435610620565b341561026057600080fd5b6100fd600160a060020a036004351660243561072d565b341561028257600080fd5b6101d0600160a060020a0360043516610827565b34156102a157600080fd5b6100fd610842565b34156102b457600080fd5b6102bc6108cd565b604051600160a060020a03909116815260200160405180910390f35b34156102e357600080fd5b6101246108dc565b34156102f657600080fd5b6100fd600160a060020a0360043516602435610947565b341561031857600080fd5b6100fd600160a060020a0360043516602435610a42565b341561033a57600080fd5b6101d0600160a060020a0360043581169060243516610ae6565b341561035f57600080fd5b610373600160a060020a0360043516610b11565b005b60035460a060020a900460ff1681565b60048054600181600116156101000203166002900480601f01602080910402602001604051908101604052809291908181526020018280546001816001161561010002031660029004801561041b5780601f106103f05761010080835404028352916020019161041b565b820191906000526020600020905b8154815290600101906020018083116103fe57829003601f168201915b505050505081565b600160a060020a03338116600081815260026020908152604080832094871680845294909152808220859055909291907f8c5be1e5ebec7d5bd14f71427d1e84f3dd0314c0f7b2291e5b200ac8c7c3b9259085905190815260200160405180910390a350600192915050565b60005481565b6000600160a060020a03831615156104ac57600080fd5b600160a060020a0384166000908152600160205260409020548211156104d157600080fd5b600160a060020a038085166000908152600260209081526040808320339094168352929052205482111561050457600080fd5b600160a060020a03841660009081526001602052604090205461052d908363ffffffff610bac16565b600160a060020a038086166000908152600160205260408082209390935590851681522054610562908363ffffffff610bbe16565b600160a060020a038085166000908152600160209081526040808320949094558783168252600281528382203390931682529190915220546105aa908363ffffffff610bac16565b600160a060020a03808616600081815260026020908152604080832033861684529091529081902093909355908516917fddf252ad1be2c89b69c2b068fc378daa952ba7f163c4a11628f55a4df523b3ef9085905190815260200160405180910390a35060019392505050565b60065460ff1681565b60035460009033600160a060020a0390811691161461063e57600080fd5b60035460a060020a900460ff161561065557600080fd5b600054610668908363ffffffff610bbe16565b6000908155600160a060020a038416815260016020526040902054610693908363ffffffff610bbe16565b600160a060020a0384166000818152600160205260409081902092909255907f0f6798a560793a54c3bcfe86a93cde1e73087d944c0ea20544137d41213968859084905190815260200160405180910390a2600160a060020a03831660007fddf252ad1be2c89b69c2b068fc378daa952ba7f163c4a11628f55a4df523b3ef8460405190815260200160405180910390a350600192915050565b600160a060020a0333811660009081526002602090815260408083209386168352929052908120548083111561078a57600160a060020a0333811660009081526002602090815260408083209388168352929052908120556107c1565b61079a818463ffffffff610bac16565b600160a060020a033381166000908152600260209081526040808320938916835292905220555b600160a060020a0333811660008181526002602090815260408083209489168084529490915290819020547f8c5be1e5ebec7d5bd14f71427d1e84f3dd0314c0f7b2291e5b200ac8c7c3b925915190815260200160405180910390a35060019392505050565b600160a060020a031660009081526001602052604090205490565b60035460009033600160a060020a0390811691161461086057600080fd5b60035460a060020a900460ff161561087757600080fd5b6003805474ff0000000000000000000000000000000000000000191660a060020a1790557fae5184fba832cb2b1f702aca6117b8d265eaf03ad33eb133f19dde0f5920fa0860405160405180910390a150600190565b600354600160a060020a031681565b60058054600181600116156101000203166002900480601f01602080910402602001604051908101604052809291908181526020018280546001816001161561010002031660029004801561041b5780601f106103f05761010080835404028352916020019161041b565b6000600160a060020a038316151561095e57600080fd5b600160a060020a03331660009081526001602052604090205482111561098357600080fd5b600160a060020a0333166000908152600160205260409020546109ac908363ffffffff610bac16565b600160a060020a0333811660009081526001602052604080822093909355908516815220546109e1908363ffffffff610bbe16565b600160a060020a0380851660008181526001602052604090819020939093559133909116907fddf252ad1be2c89b69c2b068fc378daa952ba7f163c4a11628f55a4df523b3ef9085905190815260200160405180910390a350600192915050565b600160a060020a033381166000908152600260209081526040808320938616835292905290812054610a7a908363ffffffff610bbe16565b600160a060020a0333811660008181526002602090815260408083209489168084529490915290819020849055919290917f8c5be1e5ebec7d5bd14f71427d1e84f3dd0314c0f7b2291e5b200ac8c7c3b92591905190815260200160405180910390a350600192915050565b600160a060020a03918216600090815260026020908152604080832093909416825291909152205490565b60035433600160a060020a03908116911614610b2c57600080fd5b600160a060020a0381161515610b4157600080fd5b600354600160a060020a0380831691167f8be0079c531659141344cd1fd0a4f28419497f9722a3daafe3b4186f6b6457e060405160405180910390a36003805473ffffffffffffffffffffffffffffffffffffffff1916600160a060020a0392909216919091179055565b600082821115610bb857fe5b50900390565b600082820183811015610bcd57fe5b93925050505600a165627a7a72305820e900768dfcd3e633d82145dfee2110a65fb21664b9931087b3c7d38e806886600029a165627a7a723058202c2d245f4757f2ce802dfb2ebc6a796baeaf3a16087334f12507990b8208e7c5002960606040526003805460a060020a60ff0219169055341561001f57600080fd5b604051610d54380380610d548339810160405280805182019190602001805182019190602001805160038054600160a060020a03191633600160a060020a03161790559150600490508380516100799291602001906100aa565b50600582805161008d9291602001906100aa565b506006805460ff191660ff92909216919091179055506101459050565b828054600181600116156101000203166002900490600052602060002090601f016020900481019282601f106100eb57805160ff1916838001178555610118565b82800160010185558215610118579182015b828111156101185782518255916020019190600101906100fd565b50610124929150610128565b5090565b61014291905b80821115610124576000815560010161012e565b90565b610c00806101546000396000f3006060604052600436106100e55763ffffffff7c010000000000000000000000000000000000000000000000000000000060003504166305d2035b81146100ea57806306fdde0314610111578063095ea7b31461019b57806318160ddd146101bd57806323b872dd146101e2578063313ce5671461020a57806340c10f1914610233578063661884631461025557806370a08231146102775780637d64bcb4146102965780638da5cb5b146102a957806395d89b41146102d8578063a9059cbb146102eb578063d73dd6231461030d578063dd62ed3e1461032f578063f2fde38b14610354575b600080fd5b34156100f557600080fd5b6100fd610375565b604051901515815260200160405180910390f35b341561011c57600080fd5b610124610385565b60405160208082528190810183818151815260200191508051906020019080838360005b83811015610160578082015183820152602001610148565b50505050905090810190601f16801561018d5780820380516001836020036101000a031916815260200191505b509250505060405180910390f35b34156101a657600080fd5b6100fd600160a060020a0360043516602435610423565b34156101c857600080fd5b6101d061048f565b60405190815260200160405180910390f35b34156101ed57600080fd5b6100fd600160a060020a0360043581169060243516604435610495565b341561021557600080fd5b61021d610617565b60405160ff909116815260200160405180910390f35b341561023e57600080fd5b6100fd600160a060020a0360043516602435610620565b341561026057600080fd5b6100fd600160a060020a036004351660243561072d565b341561028257600080fd5b6101d0600160a060020a0360043516610827565b34156102a157600080fd5b6100fd610842565b34156102b457600080fd5b6102bc6108cd565b604051600160a060020a03909116815260200160405180910390f35b34156102e357600080fd5b6101246108dc565b34156102f657600080fd5b6100fd600160a060020a0360043516602435610947565b341561031857600080fd5b6100fd600160a060020a0360043516602435610a42565b341561033a57600080fd5b6101d0600160a060020a0360043581169060243516610ae6565b341561035f57600080fd5b610373600160a060020a0360043516610b11565b005b60035460a060020a900460ff1681565b60048054600181600116156101000203166002900480601f01602080910402602001604051908101604052809291908181526020018280546001816001161561010002031660029004801561041b5780601f106103f05761010080835404028352916020019161041b565b820191906000526020600020905b8154815290600101906020018083116103fe57829003601f168201915b505050505081565b600160a060020a03338116600081815260026020908152604080832094871680845294909152808220859055909291907f8c5be1e5ebec7d5bd14f71427d1e84f3dd0314c0f7b2291e5b200ac8c7c3b9259085905190815260200160405180910390a350600192915050565b60005481565b6000600160a060020a03831615156104ac57600080fd5b600160a060020a0384166000908152600160205260409020548211156104d157600080fd5b600160a060020a038085166000908152600260209081526040808320339094168352929052205482111561050457600080fd5b600160a060020a03841660009081526001602052604090205461052d908363ffffffff610bac16565b600160a060020a038086166000908152600160205260408082209390935590851681522054610562908363ffffffff610bbe16565b600160a060020a038085166000908152600160209081526040808320949094558783168252600281528382203390931682529190915220546105aa908363ffffffff610bac16565b600160a060020a03808616600081815260026020908152604080832033861684529091529081902093909355908516917fddf252ad1be2c89b69c2b068fc378daa952ba7f163c4a11628f55a4df523b3ef9085905190815260200160405180910390a35060019392505050565b60065460ff1681565b60035460009033600160a060020a0390811691161461063e57600080fd5b60035460a060020a900460ff161561065557600080fd5b600054610668908363ffffffff610bbe16565b6000908155600160a060020a038416815260016020526040902054610693908363ffffffff610bbe16565b600160a060020a0384166000818152600160205260409081902092909255907f0f6798a560793a54c3bcfe86a93cde1e73087d944c0ea20544137d41213968859084905190815260200160405180910390a2600160a060020a03831660007fddf252ad1be2c89b69c2b068fc378daa952ba7f163c4a11628f55a4df523b3ef8460405190815260200160405180910390a350600192915050565b600160a060020a0333811660009081526002602090815260408083209386168352929052908120548083111561078a57600160a060020a0333811660009081526002602090815260408083209388168352929052908120556107c1565b61079a818463ffffffff610bac16565b600160a060020a033381166000908152600260209081526040808320938916835292905220555b600160a060020a0333811660008181526002602090815260408083209489168084529490915290819020547f8c5be1e5ebec7d5bd14f71427d1e84f3dd0314c0f7b2291e5b200ac8c7c3b925915190815260200160405180910390a35060019392505050565b600160a060020a031660009081526001602052604090205490565b60035460009033600160a060020a0390811691161461086057600080fd5b60035460a060020a900460ff161561087757600080fd5b6003805474ff0000000000000000000000000000000000000000191660a060020a1790557fae5184fba832cb2b1f702aca6117b8d265eaf03ad33eb133f19dde0f5920fa0860405160405180910390a150600190565b600354600160a060020a031681565b60058054600181600116156101000203166002900480601f01602080910402602001604051908101604052809291908181526020018280546001816001161561010002031660029004801561041b5780601f106103f05761010080835404028352916020019161041b565b6000600160a060020a038316151561095e57600080fd5b600160a060020a03331660009081526001602052604090205482111561098357600080fd5b600160a060020a0333166000908152600160205260409020546109ac908363ffffffff610bac16565b600160a060020a0333811660009081526001602052604080822093909355908516815220546109e1908363ffffffff610bbe16565b600160a060020a0380851660008181526001602052604090819020939093559133909116907fddf252ad1be2c89b69c2b068fc378daa952ba7f163c4a11628f55a4df523b3ef9085905190815260200160405180910390a350600192915050565b600160a060020a033381166000908152600260209081526040808320938616835292905290812054610a7a908363ffffffff610bbe16565b600160a060020a0333811660008181526002602090815260408083209489168084529490915290819020849055919290917f8c5be1e5ebec7d5bd14f71427d1e84f3dd0314c0f7b2291e5b200ac8c7c3b92591905190815260200160405180910390a350600192915050565b600160a060020a03918216600090815260026020908152604080832093909416825291909152205490565b60035433600160a060020a03908116911614610b2c57600080fd5b600160a060020a0381161515610b4157600080fd5b600354600160a060020a0380831691167f8be0079c531659141344cd1fd0a4f28419497f9722a3daafe3b4186f6b6457e060405160405180910390a36003805473ffffffffffffffffffffffffffffffffffffffff1916600160a060020a0392909216919091179055565b600082821115610bb857fe5b50900390565b600082820183811015610bcd57fe5b93925050505600a165627a7a72305820e900768dfcd3e633d82145dfee2110a65fb21664b9931087b3c7d38e806886600029",
  "source": "pragma solidity ^0.4.18;\n\nimport './TokenGenerator.sol';\nimport 'zeppelin-solidity/contracts/math/SafeMath.sol';\nimport 'zeppelin-solidity/contracts/lifecycle/Pausable.sol';\n\n/**\n * @title Crowdsale\n * @dev Crowdsale is a base contract for managing a token crowdsale.\n * Crowdsales have a start and end timestamps, where investors can make\n * token purchases and the crowdsale will assign them tokens based\n * on a token per ETH rate. Funds collected are forwarded to a wallet\n * as they arrive.\n */\ncontract CrowdsaleGenerator is Pausable {\n  using SafeMath for uint256;\n\n  // The token being sold\n  TokenGenerator public token;\n\n  // start and end timestamps where investments are allowed (both inclusive)\n  uint256 public startTime;\n  uint256 public endTime;\n\n  // address where funds are collected\n  address public wallet;\n\n  // amount of raised money in wei\n  uint256 public weiRaised;\n\n  //Tokens minted/sold in the crowdsale\n  uint256 public tokensMintedForSale;\n\n  // Exchange rate ETH to TOKEN\n  uint public rate;\n\n  //keeps track of whether or not the crowdsale has ended.\n  //Will be set to true either when the time is up or when the hard cap is reached\n  bool public isFinalized = false;\n\n  uint public tokenCap;\n  uint public minContribution;\n  uint public maxContribution;\n\n  mapping (address => uint) public contributions;\n\n  ////////////\n  // EVENTS //\n  ////////////\n\n  event Finalized();\n\n  ///////////////\n  // MODIFIERS //\n  ///////////////\n\n  modifier onlyDuringSale() {\n        require(hasStarted() && !hasEnded());\n        _;\n    }\n\n  modifier onlyAfterSale() {\n      // require finalized is stronger than hasSaleEnded\n      require(hasEnded());\n      _;\n  }\n\n  /////////////////////////////////////////\n\n  /**\n   * event for token purchase logging\n   * @param purchaser who paid for the tokens\n   * @param beneficiary who got the tokens\n   * @param value weis paid for purchase\n   * @param amount amount of tokens purchased\n   */\n  event TokenPurchase(address indexed purchaser, address indexed beneficiary, uint256 value, uint256 amount);\n\n\n  function CrowdsaleGenerator(\n    uint256 _startTime,\n    uint256 _endTime,\n    address _wallet,\n    uint _rate,\n    uint _tokenCap,\n    uint _minContribution,\n    uint _maxContribution,\n    string _tokenName,\n    string _tokenSymbol,\n    uint8 _tokenDecimals\n    ) public {\n\n    require(_startTime >= now);\n    require(_endTime > _startTime);\n    require(_wallet != address(0));\n    require(_minContribution > 0);\n    require(_maxContribution >= _minContribution);\n\n    //Standard crowdsale parameters\n    startTime = _startTime;\n    endTime = _endTime;\n    wallet = _wallet;\n    rate = _rate;\n\n    //Crowdsale config\n    tokenCap = _tokenCap;\n    minContribution = _minContribution;\n    maxContribution = _maxContribution;\n\n    //Token config\n    token = createTokenContract(_tokenName,_tokenSymbol,_tokenDecimals);\n  }\n\n  // creates the token to be sold.\n  // override this method to have crowdsale of a specific mintable token.\n  function createTokenContract(string _tokenName,string _tokenSymbol,uint8 _tokenDecimals)\n  internal returns (TokenGenerator) {\n    return new TokenGenerator(_tokenName,_tokenSymbol,_tokenDecimals);\n  }\n\n\n  // fallback function can be used to buy tokens\n  function () public payable whenNotPaused onlyDuringSale {\n    buyTokens(msg.sender);\n  }\n\n  // low level token purchase function\n  function buyTokens(address beneficiary) public payable whenNotPaused onlyDuringSale {\n    require(beneficiary != address(0));\n    require(msg.value >= minContribution);\n\n    require(contributions[msg.sender].add(msg.value) <= maxContribution);\n\n    //contribution received in wei\n    uint256 weiAmount = msg.value;\n\n    // calculate token amount to be created\n    uint256 exchangeRate = calculateTierBonus();\n    uint256 tokens = weiAmount.mul(exchangeRate).div(10 ** (18 - uint(token.decimals())));\n\n    // Make sure we don't sell more tokens than those available to the crowdsale\n    // TBD change this so we can sell the difference.\n    require (tokensMintedForSale.add(tokens) <= tokenCap);\n\n    // update state\n    weiRaised = weiRaised.add(weiAmount);  //Keep track of wei raised\n    contributions[msg.sender] = contributions[msg.sender].add(weiAmount);\n\n    tokensMintedForSale = tokensMintedForSale.add(tokens); //Keep track of tokens sold\n\n    token.mint(beneficiary, tokens);\n\n    TokenPurchase(msg.sender, beneficiary, weiAmount, tokens);\n\n    // If all tokens available for sale have been sold, finalize the sale automatically.\n    if (tokensMintedForSale == tokenCap) {\n        finalizeInternal();\n    }\n\n    forwardFunds();\n  }\n\n  //Calculate how many tokens correspond given the ether payed and the current tier.\n  function calculateTierBonus() public view returns (uint256){\n\n    if(now >= startTime && now <= endTime){\n      return rate;\n    }\n\n    //SHOULD NOT be possible to buy tokens in the following cases.\n    //Enforced by validPurchase() called in buyTokens().\n    if(now < startTime || now > endTime){\n      return 0;\n    }\n\n  }\n\n  // The internal one will be called if tokens are sold out or\n  // the end time for the sale is reached, in addition to being called\n  // from the public version of finalize().\n  function finalizeInternal() internal returns (bool) {\n      require(!isFinalized);\n\n      isFinalized = true;\n      Finalized();\n      return true;\n  }\n\n  // send ether to the fund collection wallet\n  // override to create custom fund forwarding mechanisms\n  function forwardFunds() internal {\n    wallet.transfer(msg.value);\n  }\n\n  //\n  //Helper functions for onlyDuringSale / onlyAfterSale modifiers\n  //\n\n  // @return true if crowdsale event has ended\n  function hasEnded() public constant returns (bool) {\n    bool _saleIsOver = now > endTime;\n    return _saleIsOver || isFinalized;\n  }\n\n  // @return true if crowdsale event has started\n  function hasStarted() public constant returns (bool) {\n    return now >= startTime;\n  }\n\n  //\n  //Utility functions\n  //\n\n  function tellTime() public constant returns (uint) {\n    return now;\n  }\n\n\n}\n",
  "sourcePath": "/Users/pabloruiz55/DocumentsBackup/dapps/CrowdsaleCLI/contracts/CrowdsaleGenerator.sol",
  "compiler": {
    "name": "solc",
    "version": "0.4.18+commit.9cf6e910.Emscripten.clang"
  },
  "schemaVersion": "1.0.1",
  "updatedAt": "2017-12-19T14:55:37.288Z"
}